:020000040800F2
:10100000E85E0020511300082146000895350008CD
:101010001D4600080F2E0008A7560008000000001B
:10102000000000000000000000000000B9120008ED
:10103000B12E000800000000FD120008BD85000868
:101040006B1300086B1300086B1300086B13000888
:101050006B1300086B1300086B1300086B13000878
:101060006B1300086B1300086B1300086B13000868
:101070006B1300086B1300086B1300086B13000858
:101080006B1300086B1300086B1300086B13000848
:101090006B1300086B1300086B1300086B13000838
:1010A0006B1300086B1300086B1300086B13000828
:1010B0006B1300086B1300086B1300086B13000818
:1010C0006B1300086B1300086B1300086B13000808
:1010D0006B130008A951000881520008DD52000876
:1010E0006B1300086B1300086B1300086B130008E8
:1010F0006B1300086B1300086B1300086B130008D8
:101100006B1300086B1300086B1300086B130008C7
:10111000015100086B1300086B1300086B130008E3
:101120006B1300086B1300086B1300086B130008A7
:1011300000F002F800F0B0F80AA090E8000C824439
:101140008344AAF10107DA4501D100F0A5F8AFF216
:10115000090EBAE80F0013F0010F18BFFB1A43F095
:1011600001031847A48C0000C48C00000A444FF00F
:10117000000C10F8013B13F0070408BF10F8014BF6
:101180001D1108BF10F8015B641E05D010F8016B3B
:10119000641E01F8016BF9D113F0080F1EBF10F89F
:1011A000014BAD1C0C1B09D16D1E58BF01F801CBC2
:1011B000FAD505E014F8016B01F8016B6D1EF9D545
:1011C0009142D6D37047000000230024002500265A
:1011D000103A28BF78C1FBD8520728BF30C148BF9A
:1011E0000B6070476E2900F06F83702900F0C18694
:1011F000662908F0DE82652908F0DB82672908F09D
:10120000D882612908F0D78203681B0A28BF41F001
:101210008001692900F00C81642900F00981752999
:1012200000F006816F2900F04E86782900F08D8647
:10123000E92900F0E985E42900F0E685F52900F0C8
:10124000E385EF2900F04B86F82900F08C860368CF
:10125000DB0928BF41F08001632901F0D98073299F
:1012600001F0DE80E32901F0E980F32901F0EE804E
:10127000002070471FB500F0B9FE040000200021D7
:1012800007F070FB401C60600020002107F054FB59
:10129000E0601FBD10B510BD01F072F91146FFF7F7
:1012A000E9FF05F091FE01F099F903B4FFF7F2FFB1
:1012B00003BC01F0DDF90000224B19680868B0E8B2
:1012C000F00F80F30988BFF36F8F4FF0000080F3B9
:1012D00011884EF00D0E70470000000006480068AF
:1012E000006880F3088862B661B6BFF34F8FBFF322
:1012F0006F8F00DF00BF00BF08ED00E0EFF3098053
:10130000BFF36F8F0F4B1A6820E9F00F106008B51C
:101310004FF0BF0080F31188BFF34F8FBFF36F8F83
:1013200007F0ECF84FF0000080F31188BDE80840AA
:1013300019680868B0E8F00F80F30988BFF36F8F71
:10134000704700BF0C010020EFF3058070470000DC
:101350000948804709480047FEE7FEE7FEE7FEE749
:10136000FEE7FEE7FEE7FEE7FEE7FEE70448054985
:10137000054A064B7047000019500008311100085B
:10138000E8580020E85E0020E85A0020E85A0020D3
:101390001CB50C46064B7B4469460090204600F085
:1013A000BCFC04460020694600F0CAFC20461CBD77
:1013B000A70900000FB41CB5084B06AA7B44694678
:1013C0000090059800F0A9FC04460020694600F052
:1013D000B7FC20461CBC5DF814FB0000810900002E
:1013E00070B5044685690068C10601D5302600E065
:1013F0002026C00707D070BDD4E9012130469047B0
:10140000206A401C20626D1EF6D570BD70B5044682
:1014100085690078C00707D170BDD4E9012120207B
:101420009047206A401C20626D1EF6D570BD0000FA
:101430002DE9F0410646002410687529314616A5AD
:1014400010D000F0ADF9002802DA404213A507E001
:1014500031688A0701D512A502E0490704D511A514
:10146000012401E000F0A5F900210A2206F1240779
:1014700009E0B0FBF2FCB0FBF2F302FB1C003030E1
:1014800078541846491C0028F3D123462A46304692
:10149000BDE8F04100F0BFB9000000002D000000E1
:1014A0002B000000200000002DE9F05F8946044673
:1014B0004FF0000ADFF874B1FB44C0F820A02046CA
:1014C000E1688847002874D0252806D0D4E9012196
:1014D0009047206A401C2062F1E700265F462046C4
:1014E000E16888472028054607DB312D05D27819A9
:1014F00010F8200C08B10643F1E7B00701D526F03B
:101500000406C4F81CA00027C4F818A02A2D09D08E
:10151000284604F02BF938B304EB8708303DC8F8AF
:10152000185019E059F8041B204604EB870291611A
:10153000E1688847012F054618D1E069002820DAC4
:1015400026F020061DE0D8F8180000EB800005EB1F
:1015500040003038C8F818002046E1688847054642
:1015600004F004F90028EED1012F0AD02E2D08D165
:101570002046E16888477F1C0546022F46F020067A
:10158000C4DBA069002803DA404246F00106A061EE
:10159000F00701D026F010066C2D0BD0682D09D075
:1015A0004C2D39D06A2D35D0742D35D07A2D33D0CD
:1015B00016E038E0E1682F4620468847B8420546E5
:1015C00009D16C2F26D04FF48060E1680643204695
:1015D0008847054604E06C2F1AD04FF4807006430C
:1015E0000DB3A5F14100192802D8203546F4006654
:1015F0004A462946204626604E46FFF7F3FD80B155
:1016000001280BD0F61D26F0070000F1080956E767
:101610004020E4E78020D8E70020D6E706F104095F
:101620004DE7284652E7206ABDE8F09F4C8800004D
:1016300010B5431C02E010F8011B71B18107FAD10B
:101640004FF0013202C88C1A8C4314EAC211F9D04F
:10165000C01A0A0603D0C01E10BDC01A10BD0A046D
:1016600001D0801E10BD0902FCD0401E10BD032A0F
:1016700040F2308010F0030C00F0158011F8013BAF
:10168000BCF1020F624498BF11F801CB00F8013B96
:1016900038BF11F8013BA2F1040298BF00F801CB5A
:1016A00038BF00F8013B11F0030300F06D84083AE5
:1016B000C0F0088051F8043B083A51F804CBA0E888
:1016C0000810F5E7121D5CBF51F8043B40F8043BDD
:1016D000AFF30080D20724BF11F8013B11F801CB12
:1016E00048BF11F8012B24BF00F8013B00F801CBE3
:1016F00048BF00F8012B704702F0FF0343EA0322C2
:1017000042EA024200F002B84FF000020429C0F0A1
:10171000128010F0030C00F01B80CCF1040CBCF123
:10172000020F18BF00F8012BA8BF20F8022BA1EB75
:101730000C0100F00DB85FEAC17C24BF00F8012B5A
:1017400000F8012B48BF00F8012B70474FF0000252
:1017500000B5134694469646203922BFA0E80C50A7
:10176000A0E80C50B1F12001BFF4F7AF090728BF82
:10177000A0E80C5048BF0CC05DF804EB890028BFFE
:1017800040F8042B08BF704748BF20F8022B11F027
:10179000804F18BF00F8012B7047704770477047A3
:1017A00009684A0501D540B27047C905FCD500B2A9
:1017B000704709684A0501D5C0B27047C905FCD514
:1017C00080B2704770B50C460546012A05D02878CE
:1017D000800600D5EA69002302E0012305E05B1CD6
:1017E000934202D2E05C0028F9D1A869E618C01A39
:1017F000A861286A184428622846FFF7F1FD04E032
:10180000D5E9012114F8010B9047B442F8D32846DA
:10181000FFF7FCFD70BD2DE9F0470D469946924655
:10182000044600F124080168880604D5E06921F027
:101830001001216000E00120A84201DD471B00E00B
:101840000027A1697A1902EB0900081AA061207823
:10185000C00602D42046FFF7C3FD002608E0D4E905
:1018600001211AF806009047206A401C761C20626D
:101870004E45F4DB2078C0060AD52046FFF7B0FDC0
:1018800006E0D4E9012130209047206A401C206204
:10189000381EA7F10107F4DC07E0D4E9012118F8AC
:1018A00005009047206A401C2062281EA5F1010512
:1018B000F3DC2046FFF7AAFD2078000602D50220BF
:1018C000BDE8F0870120FBE711680268006A530554
:1018D00001D508700AE0D30501D5088006E013069B
:1018E00003D5C217C1E9000200E00860012070477B
:1018F00070472DE9FF4F0C461E464FF0FF378BB067
:10190000D2E90001DDF860800A908A46C1F30A55E9
:1019100005B93D46002108464FF00000BAF1000F1E
:1019200000F4400005DA00EB80004FF4400101EACA
:1019300050004FEA9059B9F1010F00DDB9460A98FD
:1019400050EA4A000ED044F61050A5F2FF35454348
:101950002F14B8F1000F1ED07542291E1EDDC9F1EB
:1019600000021CE0B8F1010F4FF0000001D030215F
:1019700003E0F24305E02154401CB042FBDB30465B
:101980000022002121540B99C1F80880C1E90020F0
:101990000FB0BDE8F08FBD1B6D1CDEE74A4600DAD4
:1019A000694206A800F056FD06AB93E8070003ABBA
:1019B00083E8070050460A9900F061FE8DE80700B1
:1019C000A0F500501F3800900398002D0ADD42F268
:1019D0001F014A460844002303A90390684601F00A
:1019E000CAF809E0A0F500504A461F38002303A9B1
:1019F0000390684601F0D4F88DE807000004000C5D
:101A000003D04FF0FF30410800E01046B8F1000F5E
:101A100003D00022009215461EE0751E05D400F08A
:101A2000E9FA303262556D1EF9D5B34601220843FA
:101A300002D000227F1C04E02078302801D100224F
:101A40007F1E002A099784D01DE0112D07DA00F0CF
:101A5000D1FA303262556D1C50EA0102F5D10843CB
:101A600002D00098C8B10EE00021681E05E0235C9A
:101A7000625C63542254401E491C8142F7DBAB4632
:101A8000A81B401E0990002004F80B000B98099A2F
:101A9000C0F80880C0E9002B7AE711264FF0000853
:101AA00057E72DE9F04F88460446D21D22F0070182
:101AB00091B0D1E90001CDE90A0103F043FE0246ED
:101AC0000B98C00F01D02D2007E02068810701D5B9
:101AD0002B2002E0202101EAC000032A099001D056
:101AE000072A05DB03464146204600F047FC0BE190
:101AF0002078800601D5E06900E00620B8F1650F86
:101B0000814606D0B8F1660F18D0B8F1670F70D1D2
:101B100031E00020B9F1110F009001DB112301E049
:101B200009F101030AAA01A90CA8FFF7E2FEDDE909
:101B30000C70002609F10105834647E001204B4661
:101B400000904FF000470AAA01A90CA8FFF7D1FEA8
:101B5000DDE90DB00C995D46002610B909F10100D0
:101B60000D18B9EB050003D4C0F1FF3609F10105EA
:101B7000A5EB09002BE0B9F1010F01DA4FF00109E3
:101B80000020B9F1110F0090484601DD112300E05B
:101B900003460AAA01A90CA8FFF7ABFEDDE90C7009
:101BA0004D4600268346207800070AD4AB4500DA6C
:101BB0005D4601A8012D04DD411911F8011C3029F1
:101BC00007D04F4502DA17F1040F04DA01208246EC
:101BD0000FE06D1EEEE7002F02DCED1B3E4403E03C
:101BE000781CA84200DD7D1CB81B00F1010A4FF0F3
:101BF00000472078000703D4AA4501DB4FF0FF3AE5
:101C00000021B7F1004F0DF143088DF8431024D0A7
:101C100002202B23002F01DA7F422D230A21021EEE
:101C2000A0F1010000DC5FB197FBF1FC97FBF1F242
:101C300001FB1C7C17460CF1300C08F801CDEEE7D7
:101C4000A8F1010003702188090501D5452100E0B4
:101C50006521A0F1010800F8011C09980FA9A1EB6A
:101C60000807FF1D00B10120411901EBEA70A169CD
:101C70003844081A401EA0612078C00602D42046CD
:101C8000FFF7AEFB099828B1D4E901219047206AFB
:101C9000401C20622078C00622D52046FFF7A0FB1A
:101CA0001EE0002E04DBB34502DD01A8805D00E0EC
:101CB0003020D4E901219047206A401C2062761C24
:101CC000AAF101005FEA000A0AD100F08FF9C068AA
:101CD0000168405CD4E901219047206A401C2062E1
:101CE000281EA5F10105DCDC07E0D4E9012118F884
:101CF000010B9047206A401C2062381EA7F10107A3
:101D0000F3DC2046FFF782FB032011B041E6000020
:101D100001694A1C02610878704700B58FB0CDE9AF
:101D200001310021059105497944CDE9031011469F
:101D30006846FFF7B9FB0FB000BD0000E5FFFFFFED
:101D40000A6802F8010B0A60704700002DE9FF5F86
:101D500015468A460446DFF8AC80F8440027D8E9E7
:101D600000103E46CDE9001010E03AF816106A4621
:101D700002A800F0E1FB411C07D02178890603D5B9
:101D8000E269391891420DD80744761C2078800604
:101D900002D5E069B84205DDAE42E6DB3AF816004E
:101DA0000028E2D1A069C01BA0612046FFF718FB04
:101DB000D8E90010CDE90010002017E03AF818101B
:101DC0006A4602A800F0B8FBB0F1FF3F81460BD095
:101DD00000250DF1080B05E0D4E901211BF80500F1
:101DE00090476D1C4D45F7D308F10100B042804685
:101DF000E4DB206A384420622046FFF707FBBDE899
:101E0000FF9F0000BE7F00002DE9F0418046D21DFB
:101E100022F007020025D2E90002F52915A614D008
:101E2000011E72F1000106DA0023D0EB030063EB20
:101E3000020211A608E0D8F800108B0701D50FA602
:101E400002E0490701D50EA601251146002408F13C
:101E5000240704E000F0CEF830323A55641C50EA12
:101E60000102F7D12B46324621464046BDE8F041FB
:101E7000FFF7D1BC000000002D0000002B00000087
:101E80002000000030B4002100F1240408E002F03A
:101E90000705D208303542EA4372DB086554491C15
:101EA00052EA0305F3D10468002310A2250707D5E1
:101EB000A40600D421B1C46901230DA2641EC4612B
:101EC00030BCFFF7A8BC10B5044621461068FFF7E8
:101ED00070FC02462046BDE810400023D2E7D21D28
:101EE00022F00701D1E90023CCE700000000000048
:101EF00030000000F0B40D460188090502D5214CE0
:101F00007C4402E01F4C7C440E34002100F1240686
:101F100008E002F00F071209E75D42EA03721B09AD
:101F20007754491C52EA0307F3D1027800231207C1
:101F300004D5702D06D009B1022311342246F0BC1D
:101F4000FFF769BC01231034F8E770B504460D466D
:101F500021461068FFF72DFC024629462046BDE8C1
:101F600070400023C6E7D21D22F00703D3E9002307
:101F7000C0E70368126843F0200303600823C361CD
:101F80000023B7E7207E000010B5203AC0F00B8098
:101F9000B1E81850203AA0E81850B1E81850A0E86D
:101FA0001850BFF4F5AF5FEA027C24BFB1E81850C7
:101FB000A0E8185044BF18C918C0BDE810405FEA37
:101FC000827C24BF51F8043B40F8043B08BF7047B3
:101FD000D20728BF31F8023B48BF11F8012B28BFB8
:101FE00020F8023B48BF00F8012B704700487047BB
:101FF000A858002030B5B0F10A024FEA900E71F1F6
:1020000000034EEA817EB0EB0E0061EB91014FEAD6
:10201000101E4EEA017E10EB0E0041EB11114FEA4B
:10202000102E4EEA016E10EB0E0041EB11214FEA2B
:10203000104E4EEA014E10EB0E0041EB11414018DC
:1020400041F100014FEAD00040EA41704FEAD1016E
:1020500010EB80054FEA810444EA907444EB0104DC
:102060006D1944EB0404521BA3414FF0000348BF19
:102070000A3200D530BD401C41F1000130BD0000E6
:102080002DE9F04F04460D46D21D22F0070089B01D
:10209000D0E900974846394603F054FB0246F80F52
:1020A00001D02D2307E02068810701D52B2302E012
:1020B000202101EAC0038DF820300BB1012000E09F
:1020C0000020032A824601D0072A04DB2946204645
:1020D00000F054F93FE12078800601D40D2500E09E
:1020E000E569C7F30A560D2D49DA00214FEA175B5F
:1020F00008464FF00000002F00F4400007DA00EB24
:1021000080004FF4400100EBD07001EA60008115BF
:10211000012901DD4FF0FF3100224FEA850CBCF1AF
:10212000180F06D31346ACF118004FF08052C2408E
:1021300003E04FF4801323FA0CF30CF10C0CBCF108
:10214000200F04D3ACF1200C09FA0CF001E007FADF
:102150000CF000294FF0004801DD18B90FE00ED156
:1021600040450CD319EB02095F4121B9404502D12A
:102170009F4329EA0209BBEB175F00D0761C208839
:10218000000502D57B48784402E07A487844193843
:1021900008AA302302F80A30037C0AF10101002E5C
:1021A0000AF1020A53546A4602DC4FF0300101E0A2
:1021B0004FF031014FF001088DF8001002D0A6F267
:1021C000FF3603E059EA470100D06B4E002D02DCD8
:1021D0002178090704D54FF002082E218DF801104F
:1021E000C44600210BE0C7F303433F01C35C491C15
:1021F0006D1E02F80830052908F1010801DA002DEA
:10220000F1DC00210CE000EB1973491C1B786D1EFA
:10221000082902F808304FEA091908F1010801DA23
:10222000002DF0DC21688B0602D516E0A8F101082C
:10223000E04505DD02EB080313F8013C302BF5D037
:10224000B8F1000F09DD02EB080313F8013C2E2B57
:1022500003D1090701D4A8F10108002D05DD3E21B5
:1022600002F808106D1E08F10108407C002E02F8EB
:10227000080008F1010804DA2D20764202F808006F
:1022800002E02B2002F808000A214FF47A708642FF
:1022900008F101080BDB96FBF0F3303302F808304D
:1022A00096FBF0F308F1010800FB136601E0642ED1
:1022B0000CDB642096FBF0F3303302F8083096FB19
:1022C000F0F308F1010800FB136601E00A2E06DBBB
:1022D00096FBF1F0303002F8080008F1010896FB97
:1022E000F1F001FB1060303002F80800A16908F13C
:1022F000010808EB050202EB0A00081AA061207829
:10230000C00602D42046FFF76BF8216A08AE01EB45
:102310000A00206204E0D4E9012116F8010B90477D
:10232000BAF1010AF7D22078C00602D52046FFF79D
:1023300057F86E4609E016F8010B3E280FD0D4E995
:1023400001219047206A401C2062B8F10108F2D2B6
:102350002046FFF75BF809B00320BDE8F08F206A44
:102360002844206203E0D4E90121302090476D1E0B
:10237000EBD3F8E7D57B000002FCFFFF2DE9F0412D
:102380001F46044603260168072A01F4006004DBA7
:1023900008B116A505E016A503E008B115A500E0F3
:1023A00015A521F010002060A069C01EA0610FB12A
:1023B000401EA0612046FFF713F84FB1D4E9012178
:1023C00038469047206A401C2062C01C206206E00C
:1023D000206AFAE7D4E9012115F8010B9047761E2F
:1023E000F8D22046FFF712F8BDE8F0814E414E00CA
:1023F0006E616E00494E4600696E660010B5436915
:1024000013B1AFF3008001E0FFF7DCF9012010BD4C
:10241000127800F124010A7000224A700122EDE7CF
:1024200011684FF0FF32E9E710B5436913B1AFF31C
:10243000008001E0FFF78AFC012010BD128800F146
:10244000240182840022C2840122EDE711684FF04A
:10245000FF32E9E72DE9F047814616468AB0354854
:1024600078440DC88DE80D0032487844801C03ACD8
:102470000DC884E80D0041F69B300844372190FBDD
:10248000F1F290FBF1F5A5F1800501FB12041B3C74
:1024900002D56442012000E00020DFF898A08046C9
:1024A0000027FA44AAF1BE0A0EE0E0070AD032463D
:1024B000684607EB470101230AEB810100F070FB3E
:1024C0008DE8070064107F1C002CEED1194F7F446B
:1024D000AE3F19E0E80715D007EB04100DF1180A1C
:1024E00090E80E008AE80E00C068F04201D1981909
:1024F00008903246012306A903A800F051FB03AB64
:1025000083E807006D10641C002DE3D14FF0010338
:1025100032466946B8F1000F03A802D000F02BFB49
:1025200001E000F03DFBC9E90001C9F808200AB04C
:10253000BDE8F0878C79000070B516460C4605465C
:1025400000F044F8036893F80101012806D0FF2C3D
:102550000FD8185D68B101202C7070BDD3F8070149
:102560003246214603F2071303442846BDE8704073
:1025700018474FF0FF3070BD004870478858002062
:102580007546FFF7F9FFAE4605006946534620F051
:102590000700854618B020B5FEF7E8FEBDE82040EC
:1025A0004FF000064FF000074FF000084FF0000B0F
:1025B00021F00701AC46ACE8C009ACE8C009ACE8C2
:1025C000C009ACE8C0098D467047000010B5FFF7A0
:1025D0000DFD001D10BD00BF8D63000010B5044649
:1025E000AFF300802046BDE81040FEF75EBE00005D
:1025F0004FF0013C50F8042B51F8043B9A4221D192
:10260000A2EB0C03934313EACC1317D150F8042B1D
:1026100051F8043B9A4215D1A2EB0C03934313EA01
:10262000CC130BD150F8042B51F8043B9A4209D13A
:10263000A2EB0C03934313EACC13DBD04FF0000062
:10264000704700BFD01A01BAB1FA81F101F0180148
:1026500022FA01F0CB40C1F12001DBB2C0B2C01AB6
:102660002CFA01F3D11A914311EAC311E6D1704754
:1026700001491820ABBEFEE72600020070475FEA62
:10268000400C08BF91F0000F4FEA8C234FEAC122A3
:1026900043EA51514FEA1C5018BF00F5F0404FEA91
:1026A000300018BF41F000415FEA6C5C00F0298007
:1026B000BCF1FF3F08BF40F080407047130C06BFDD
:1026C00012044FF0100C4FF0000C130E04BF120256
:1026D0000CF1080C130F04BF12010CF1040C930F42
:1026E00004BF92000CF1020CD30F04BF52000CF196
:1026F000010C11464FF00002A0F11F00A0EB0C00EE
:10270000704711F0004F08BF704731F000413FF4AF
:10271000D5AF0B0C06BF09044FF0100C4FF0000CA6
:102720000B0E04BF09020CF1080C0B0F04BF0901CA
:102730000CF1040C8B0F04BF89000CF1020CCB0FC1
:1027400004BF49000CF1010CCCF12003A0EB0C00FC
:1027500022FA03F302FA0CF241EA030100F101004C
:10276000704720F07F4C80EA030023F07F47ACEBFA
:10277000070303F57C5300F0004003F1FF032DE94C
:1027800080494FEA154B09B44FEA144325EA0B4E32
:1027900024EA03480FF2042606EB132749083E7883
:1027A0005FEA320203FB0667C7F5000707FB06F680
:1027B0004FEA54374FEAD64606F1020607FB066C8D
:1027C000CCF1005C4FEA1C472CEA074C07FB06F4EF
:1027D0000CFB06F504EB15464FEA961634BF0020B5
:1027E0004FF000404FEAD13706FB07FC4FEA1C4C84
:1027F0000CFB0BF7D21B03FB0CF761EB07010CFB87
:102800000EF7B0EB074072EB17420CFB08F734BF32
:10281000A2EB0742B2EB074261EB17414FEA0C44CF
:102820004FEA910706FB07FC4FEA1C4C0CFB0BF729
:10283000B0EBC74072EB573203FB0CF734BFA2EB8F
:10284000C742B2EBC74261EB57310CFB0EF7B0EB5E
:10285000C70072EB57720CFB08F734BFA2EBC7023C
:10286000B2EBC70261EB5771039F4FEA816141EA06
:10287000921104EBCC044FEAD1374FEA826206FB97
:1028800007FC42EA90124FEA80604FEA1C4C0CFBB6
:102890000BF7D21B03FB0CF761EB07010CFB0EF7E8
:1028A000B0EB074072EB17420CFB08F734BFA2EB0A
:1028B0000742B2EB074261EB17414FEA8C554FEAF2
:1028C000910704EB9C2406FB07FC4FEA1C4C0CFB15
:1028D0000BF7B0EBC74072EB573203FB0CF734BF7A
:1028E000A2EBC742B2EBC74261EB57310CFB0EF7CC
:1028F000B0EBC70072EB57720CFB08F734BFA2EBCA
:10290000C702B2EBC70261EB577115EB4C254FEADA
:10291000816141EA92114FEA82624FEAD13742EA7D
:10292000901206FB07FC44F100044FEA80604FEA76
:102930001C4C0CFB0BF7D21B03FB0CF761EB0701E4
:102940000CFB0EF7B0EB074072EB17420CFB08F7DD
:1029500034BFA2EB0742B2EB074261EB174115EB24
:102960001C154FEA813141EA92414FEA823242EA34
:1029700090424FEA80304FEA0C7644F1000448EA76
:1029800003434EEA0B484FF0000EB2EB080C71EB1C
:10299000030724BF624639464EEB0E0E4FF0000B84
:1029A0000018524149414BEB0B0BB2EB080C71EB99
:1029B00003077BF1000B24BF624639464EEB0E0E37
:1029C0004FF0000B0018524149414BEB0B0BB2EB9F
:1029D000080C71EB03077BF1000B24BF62463946FC
:1029E0004EEB0E0E51EA020718BF46F0010616EB39
:1029F0000E7655F1000254F1000103D5BDE88901BE
:102A0000BDE80088BDE88901BDE80048B61952411B
:102A100041EB0101A3F10103704780807F7E7D7C43
:102A20007B7A7978777676757473727171706F6E60
:102A30006E6D6C6C6B6A6A6968686766666564640B
:102A4000636362616160605F5F5E5E5D5D5C5C5B95
:102A50005B5A5A5959585857575656555555545404
:102A6000535352525251515050504F4F4F4E4E4D62
:102A70004D4D4C4C4C4B4B4B4A4A4A4949494848AE
:102A800048474747474646464545454444444443EE
:102A900043434342424242414141002B9C4630D491
:102AA00077002BD01CB54FEA370703B44FF0100066
:102AB0004FF01001BAF1000F06D0BCF1000FDCBFDF
:102AC00040F0080040F008014FF000000FBCBDE8E6
:102AD00010400BF1010BBBF1010F08BF5FEA1707B4
:102AE00022BF12F1010211F101014FF0004143F147
:102AF000000300F0004043EA00007047F9D3570894
:102B0000D0E746EA064613F1400F4FEA16461FDDAE
:102B100013F1200FDFBF16430A46002120335B422A
:102B2000BED0C3F1200746EA064602FA07F74FEA8D
:102B3000164646EA0706C3F1200722FA03F201FA15
:102B400007F721FA03F14FF0000342EA0702A7E773
:102B500046EA020646EA06464FEA164646EA0106F5
:102B6000BCBF46EA0646360C4FF000034FF00002A9
:102B70004FF0000194E72DE9804C9A46934670B4DB
:102B800091E8380007C831EA400C48BF34EA430CEA
:102B900003D5FFF7E6FDFFF780FFF0BCBDE8008C32
:102BA0002DE9804C9A46934670B491E8380007C8E6
:102BB00010F0804F08BF13F0804F03D100F005F8EC
:102BC000FFF76BFFF0BCBDE8008C20F07F4780EA88
:102BD000030023F07F4C07EB0C03A3F57C5300F0BC
:102BE0000040A3F1FE0392F0000F00F0B38095F0D7
:102BF000000F00F077802DE901494FEA11404FEABC
:102C0000144621EA004800FB06FC24EA064708FBBC
:102C100006F607FB08F800FB07F718EB06484CEB35
:102C2000164C4FEA124B18EB07484FEA15464CEB8F
:102C3000174022EA0B4E0BFB06FC25EA06470EFB6B
:102C400006F607FB0EFE0BFB07F71EEB064E4CEBE2
:102C5000164C4FF000061EEB074E4CEB174B18EBD3
:102C60000B0840F1000018EB0E0B58EB000840F188
:102C700000008F1A4FF000013CBFC943661B14BF10
:102C8000B5EB040C00213CBFC943F61B4FEA1744C7
:102C90004EEA8E0E27EA04454FEA1C4704FB076202
:102CA0002CEA074C05FB07F70CFB05F604FB0CFCB4
:102CB00016EB074642EB174216EB0C4642EB1C4262
:102CC0001BEB060658EB0202414146EA9E0601D57F
:102CD000BDE80189B619524141EB0101A3F101039D
:102CE000BDE801894FEA14454FEA114724EA054639
:102CF00021EA074C05FB07F406FB07F70CFB06F17E
:102D000005FB0CFC11EB074144EB17444FEA12475B
:102D100011EB0C4144EB1C4422EA074C05FB07F283
:102D200006FB07F70CFB06F605FB0CFC16EB07464B
:102D300042EB174216EB0C4642EB1C456A1854F165
:102D4000000148BF7047B619524141EB0101A3F1A0
:102D50000103704795F0000F37D04FEA11424FEA58
:102D6000144721EA024624EA074C02FB07F106FB5E
:102D700007F70CFB06F402FB0CFC14EB074441EBD9
:102D800017414FEA154714EB0C4441EB1C4125EA6F
:102D9000074C02FB07F506FB07F70CFB06F602FBE8
:102DA0000CFC16EB074645EB174516EB0C4645EBBE
:102DB0001C42121951F1000148BF7047B619524127
:102DC00041EB0101A3F1010370474FEA14454FEABB
:102DD000114724EA054621EA074C05FB07F106FBEB
:102DE00007F70CFB06F24FF0000605FB0CFC12EB9C
:102DF000074241EB174112EB0C4251EB1C4148BF1B
:102E00007047921841EB0101A3F10103704700BF25
:102E1000FEE770B505460E4614463146284600F0DA
:102E2000ACFBA04201D1012070BD0020FCE70000F6
:102E3000F0B502460020002300BF00BF33E0165C5F
:102E40002E3E0C2E1DD2DFE806F01A1C06080A0CD6
:102E50000E1012141618002113E0012111E00221B6
:102E60000FE003210DE004210BE0052109E006211C
:102E700007E0072105E0082103E0092101E00A211C
:102E800000BF00BF064600EBD6777F10A0EB4707D8
:102E900017B90E07340E05E00D4644EA0506034F48
:102EA000FE545B1C401C7028C9DBF0BDFC0B0020ED
:102EB0007047000010B5042002F09AF8104800682E
:102EC0001049B0FBF1F0104908600D4800680D4949
:102ED000B0FBF1F44FF47A70444301200B490860D1
:102EE0004FF0E020006940F002004FF0E02108615F
:102EF00008464461006940F00100086110BD00000F
:102F0000E400002040420F00400000204400002068
:102F100030B5044604254FF4302000F085F805460E
:102F2000042D17D10C48006940F002000A490861DD
:102F300008464461006940F0400008614FF43020C9
:102F400000F072F805460448006941F6FD7108403A
:102F500001490861284630BD0020024004200B4989
:102F6000C96801F0010109B101200EE00749C968F3
:102F700001F0040109B1022007E00449C96801F029
:102F8000100109B1032000E0042070470020024036
:102F90000348006940F08000014908617047000063
:102FA0000020024078B506460C460425002000901B
:102FB000E80200F039F80546042D24D113480069D1
:102FC00040F00100114908613480E80200F02CF85B
:102FD0000546042D10D1B01C0090200C00990880EB
:102FE000E80200F021F805460848006941F6FE7144
:102FF00008400649086106E00448006941F6FE7190
:10300000084002490861284678BD000000200240BF
:1030100002480349486003484860704723016745F8
:1030200000200240AB89EFCD00B502460423FFF734
:1030300095FF034603E0FFF791FF0346521E012B65
:1030400001D1002AF7D102B90523184600BD0000BE
:103050001CB506480021064B4FF48072CDE90010E4
:1030600004A1084805F0C4FA1CBD0000200000209F
:103070001A00002078537461727448616E646C6544
:1030800072000000B58000082DE9F04F8BB00024DD
:103090000026002009908146AA48807F00286FD032
:1030A000A849CA79897901EBC10303EB011102EB4D
:1030B0008102A449497940F27123594302EB01127C
:1030C000A049097943F60953594302EB811005F0F1
:1030D00091FE9D4A127802EB42029C4B03EBC20226
:1030E000C2E902019749C978964A927802EBC20375
:1030F00003EB021201EB82029249497840F27123FC
:10310000594302EB01128F49097843F60953594399
:1031100002EB811005F06EFE8B4A127802EB420240
:103120008A4B03EBC20203C28748007800EB4000E1
:10313000194601EBC0008349498B0182824801781E
:103140000078401C804A107001EB4100194601EBE9
:10315000C0007F490A68C0F812208988C1827A4875
:10316000007805280CDB00BF31E004EB4403774F07
:1031700007EBC303B3F91220002A02DB134601E078
:10318000DDE0534204EB4407DFF8C0C10CEBC70796
:10319000B7F91410002901DB0F4600E04F421F442D
:1031A00004EB4403DFF8A4C10CEBC303B3F916002E
:1031B000002801DB034600E0434207EB03090998BE
:1031C000484502DACDF824902646601CC4B2052C8E
:1031D000CBDB06EB46005D4901EBC00003C8CDE93F
:1031E000000106EB4601594A02EBC101D1E9027325
:1031F0005849097801EB0111574A88183A4657A1F6
:10320000FEF7D8F853480078401C52490870084629
:10321000007806287DDB5549486805F0FDFF074624
:10322000884652490868524906F022F8834605F05C
:10323000F3FFCDE906014348C17E807E01EB00200B
:103240000A2190FBF1FB584605F0D4FDCDE9027848
:10325000CDE90401DDE90601CDE9000145A13E48C3
:103260006630DDE90423FEF7A5F83B48FFF7E0FDF3
:10327000372245494548FEF7FAF944481138444990
:103280000A6882648988A0F84C104E3030490A6878
:103290000260898881804E383E490A684265898883
:1032A000A0F858103C4800684FF47A7190FBF1F098
:1032B00000F0FF0A3548113880F85AA036484068B7
:1032C000642190FBF1F000B2089030481138BDF84D
:1032D0002010A0F85B1030484068002805DD102061
:1032E0002A49113981F85F0004E00020274911398B
:1032F00081F85F002948006803F05CF90546012D5C
:1033000001D0022D15D1002302221946234800685E
:1033100000E011E005F09CF9012807D100072049E1
:103320000860BFF34F8FBFF36F8F02E01DA000F066
:10333000E9FB0020074908700020034908700BB022
:10334000BDE8F08F4011002018000020380C00204C
:10335000AA00002019000020A91000202530382ED6
:1033600030662530392E306600000000380000201D
:103370000000F0412530342E30662530322E306684
:103380002530322E30660000FC0B00205910002042
:10339000A2000020B2000020CC000020300000205D
:1033A00004ED00E0785461736B4E6F746966794781
:1033B0006976650D0A0000002DE9F04102460025FE
:1033C0000026002000230024002791F803C00CF001
:1033D0000F0591F803C00CF0100CBCF1000F03D0E6
:1033E00091F802C04CEA050591F800C0BCF1000F4D
:1033F00031D0146800202BE04FF0010C0CFA00F3E0
:10340000B1F800C00CEA03069E4220D183004FF0C1
:103410000F0C0CFA03F7BC4305FA03FC4CEA040456
:1034200091F803C0BCF1280F06D14FF0010C0CFA43
:1034300000FCC2F814C00AE091F803C0BCF1480FC8
:1034400005D14FF0010C0CFA00FCC2F810C0401C72
:103450000828D1D31460B1F800C0BCF1FF0F34DDEF
:10346000546800202EE000F1080C4FF0010808FA23
:103470000CF3B1F800C00CEA03069E4221D1830090
:103480004FF00F0C0CFA03F7BC4305FA03FC4CEAAF
:10349000040491F803C0BCF1280F05D100F1080C19
:1034A00008FA0CF8C2F8148091F803C0BCF1480F78
:1034B00007D100F1080C4FF0010808FA0CF8C2F827
:1034C0001080401C0828CED35460BDE8F081000075
:1034D000F0B50A46002300240021002500F0004634
:1034E000B6F1004F02D11D4EF16901E01B4E71682B
:1034F000C0F3034583B200F44016B6F5401F08D16F
:1035000021F07061154E766826F07066134F7E606C
:1035100012E000F48016B6F5801F06D1032606FAE5
:1035200005F4A14341F0706106E0460D360103FA4F
:1035300006F6B14341F0706122B1460D360103FA3F
:1035400006F6314300F00046B6F1004F02D1034EBB
:10355000F16101E0014E7160F0BD0000000001402A
:103560000246002093680B400BB1012000E00020D0
:103570007047416170470161704730B502460020D5
:10358000002304E012F8014B60405C1CE3B28B4264
:10359000F8DB30BD00BFFEE72DE9F04104460D46E3
:1035A000164600276006070E00F02CF9384600F09A
:1035B000EFF841F2883000F069F910B10120BDE860
:1035C000F081284600F0E4F841F2883000F05EF91E
:1035D00008B10120F3E700F015F9791CC8B200F03A
:1035E000D7F841F2883000F051F908B10120E6E740
:1035F00000F09EF8307000F079F800F025F9002016
:10360000DDE72DE9F04105460E4614460027680621
:10361000070E00F0F7F8384600F0BAF841F28830AB
:1036200000F034F910B10120BDE8F081304600F01F
:10363000AFF841F2883000F029F908B10120F3E732
:103640004CB1207800F0A4F841F2883000F01EF967
:1036500008B10120E8E700F0F7F80020E4E70000F7
:1036600010B54FF480610D48FFF783FF4FF4006100
:103670000A48FFF77EFF0A49088802F08FFC4FF4E2
:1036800080610648FFF777FF0549088802F086FC4D
:103690004FF480610148FFF76CFF10BD000C014042
:1036A0003400002008B50121082001F00DF8142095
:1036B0008DF803004FF44060ADF8000003208DF852
:1036C000020069460848FFF777FE0A2000F094F8E8
:1036D0004FF400610448FFF74EFF4FF48061024849
:1036E000FFF749FF08BD0000000C014010B54FF482
:1036F00080610D48FFF73DFF4FF400610A48FFF776
:103700003AFF0A49088802F049FC4FF480610648F4
:10371000FFF731FF0549088802F040FC4FF4806153
:103720000148FFF726FF10BD000C014034000020C7
:1037300070B5002500244FF400611348FFF71BFF0C
:103740001DE04FF480611048FFF713FF0F49088810
:1037500002F024FC4FF480610B48FFF70CFF600679
:10376000040E4FF400610848FFF7FAFE08B1601C30
:10377000C4B20649088802F011FC681CC5B2082DC5
:10378000DFDB204670BD0000000C0140340000204B
:1037900070B5044600254FF480611548FFF7E9FE37
:1037A00023E004F0800028B14FF400611048FFF7D7
:1037B000E2FE04E04FF400610D48FFF7DAFE600618
:1037C000040E0C49088802F0E9FB4FF480610848B8
:1037D000FFF7D1FE0749088802F0E0FB4FF4806153
:1037E0000348FFF7C6FE681CC5B2082DD9DB70BDC3
:1037F000000C01403400002001490880704700009F
:103800003400002010B54FF400610D48FFF7B3FEFF
:103810004FF480610A48FFF7AEFE0A49088802F0BB
:10382000BDFB4FF400610648FFF7A3FE0549088879
:1038300002F0B4FB4FF480610148FFF79AFE10BD1F
:10384000000C01403400002010B54FF400610D4819
:10385000FFF78FFE4FF480610A48FFF78AFE0A499E
:10386000088802F09BFB4FF480610648FFF783FE57
:103870004FF400610348FFF77EFE0349088802F019
:103880008DFB10BD000C01403400002010B5044633
:103890004FF400611648FFF76EFE1649088802F0E3
:1038A0007DFB4FF480611248FFF765FE11490888DF
:1038B00002F074FB0EE0601E041E07D10EA1134837
:1038C00001F0F3FEFFF7C0FF012010BD0949088891
:1038D00002F064FB4FF400610548FFF741FE002849
:1038E000E9D14FF480610248FFF743FE0020ECE786
:1038F000000C0140340000205761697441636B2063
:1039000054696D654F75740D0A0000000048004051
:103910004CF6CC4001490860704700000030004080
:1039200070B505460C4645F2555000F01FF8284684
:1039300000F010F8204600F013F800F003F8FFF74D
:10394000E7FF70BD4AF6AA200149086070470000F1
:1039500000300040014948607047000000300040DE
:10396000014988607047000000300040014908604C
:1039700070470000003000400178552900D07047A2
:10398000417850390B2951D2DFE801F0060E161E9E
:10399000262E363E464E4F002649D0F802200A60B9
:1039A000D0F806204A6042E02349D0F802200A609D
:1039B000D0F806204A603AE02049D0F802200A6098
:1039C000D0F806204A6032E01D49D0F802200A6093
:1039D000D0F806204A602AE01A49D0F802200A608E
:1039E000D0F806204A6022E01749D0F802200A6089
:1039F000D0F806204A601AE01449D0F802200A6084
:103A0000D0F806204A6012E01149D0F802200A607E
:103A1000D0F806204A600AE00E49D0F802200A6079
:103A2000D0F806204A6002E001E000E000BF00BFDD
:103A300000BFA4E79A000020A2000020AA000020F6
:103A4000B2000020BA000020C2000020CC000020FC
:103A5000D4000020DC00002008B50121802000F007
:103A600033FE0220ADF8000010208DF80300032083
:103A70008DF8020069460448FFF79EFC02210248C7
:103A8000FFF779FD08BD0000001C014008B50121C9
:103A9000802000F019FE1020ADF800008DF8030022
:103AA00003208DF8020069460348FFF785FC1021CA
:103AB0000148FFF760FD08BD001C014008B5012169
:103AC000042000F001FE0120ADF8000010208DF868
:103AD000030003208DF8020069460448FFF76CFCE0
:103AE00001210248FFF747FD08BD00000008014022
:103AF00010B501F08FF8FFF7E1FFFFF7ADFFFFF71B
:103B0000C5FF10BD70B5044613480078E8B913220C
:103B10001249134802F086FE0F49087008460078E3
:103B2000C8B90F48C16802F08EFD2046FDF780FD40
:103B300005460C4B2A462146094802F089FF0649F2
:103B40000870074802F074FD05E00749002002F004
:103B500053FE0149087070BD00000020E80B0020F2
:103B6000C4050020080000207001002030B589B095
:103B70000446FF220021092000F0BCFCC5B215B1AB
:103B8000284609B030BD0122102105A800F066FCCE
:103B900008B10120F5E7FF2200210A2000F0AAFC6D
:103BA000C5B20DB12846ECE70122102101A800F0B2
:103BB00055FC08B10220E4E79DF81400800920704C
:103BC0009DF81400C0F3830060709DF8140000F0AD
:103BD0000300A0709DF81500E0709DF8160020719C
:103BE0009DF8170060719DF818000001E080E088E2
:103BF0009DF8191040EA1110E0809DF8190000F0BE
:103C00000F0020729DF81A00C00960729DF81A001A
:103C1000C0F38010A0729DF81A00C0F34010E0724B
:103C20009DF81A00C0F300102073002060739DF807
:103C30001A008007000D206120699DF81B1040EAE2
:103C40008100206120699DF81C1040EA91102061DC
:103C50009DF81C00C0F3C20020759DF81C0000F008
:103C6000070060759DF81D004009A0759DF81D00B6
:103C7000C0F38200E0759DF81D008007400F20769C
:103C8000207E9DF81E1040EAD11020769DF81E007F
:103C9000C0F3840060769DF81E008007C00EA076F9
:103CA000A07E9DF81F1040EA5110A0769DF81F00DD
:103CB00000F01F00E0769DF82000C00920779DF8F5
:103CC0002000C0F3411060779DF82000C0F382000F
:103CD000A0779DF820008007000FE077E07F9DF837
:103CE000211040EA9110E0779DF82100C0F34010C8
:103CF00084F82000002084F821009DF8210000F0C5
:103D0000010084F822009DF82200C00984F82300F5
:103D10009DF82200C0F3801084F824009DF8220052
:103D2000C0F3401084F825009DF82200C0F3001075
:103D300084F826009DF82200C0F3810084F8270053
:103D40009DF8220000F0030084F828009DF823006D
:103D5000400884F82900012084F82A0094F84E00D5
:103D6000042808D19DF81C000002206120699DF8FC
:103D70001D10084420612069C00460644FF4007085
:103D8000A0649DF8040084F82C009DF80500010251
:103D9000E185E08D9DF806100843E0859DF8070059
:103DA00001062163206B9DF8081040EA0141216360
:103DB000206B9DF8091040EA01212163206B9DF8DA
:103DC0000A10084320639DF80B10342001559DF81C
:103DD0000C10352001559DF80D000106A163A06B64
:103DE0009DF80E1040EA0141A163A06B9DF80F10F1
:103DF00040EA0121A163A06B9DF810100843A06365
:103E00003C20005D9DF8111040EA11113C20015545
:103E10009DF811000007010DE187E08F9DF8121059
:103E20000843E0879DF81300410840200155012117
:103E3000412001550020A4E67CB5002000900190AF
:103E4000002401E0601C84B2FF2CFBDD002404E0B0
:103E5000FF2000F0CDFB601C84B20A2CF8DB0024AC
:103E60000BE095220021084600F044FBC5B2012D6D
:103E700001D1002405E0601C84B240F6FF7084424A
:103E8000EFDB00BF40F6FF70844201D101207CBD12
:103E900087224FF4D571082000F070FBC5B2052DC4
:103EA0005FD10120754981F84E007548006840F0E7
:103EB000100073490860FF2000F09AFB002414E012
:103EC00000221146372000F015FBC5B2012D01D0AC
:103ED0002846DCE700221146292000F00BFBC5B282
:103EE0000DB9002405E0601C84B240F6FF708442E6
:103EF000E6DB00BF40F6FF7084421BD100240AE0DD
:103F000000221146012000F0F5FAC5B20DB90024D7
:103F100005E0601C84B240F6FF708442F0DB00BF15
:103F200040F6FF70844201D10220B0E700205349DF
:103F300081F84E00012000F00DF9012200213B2004
:103F400000F0D8FAC5B20DB12846A0E7FF224FF421
:103F50000071102000F0CEFAC5B2002D7ED02846A8
:103F600095E7012D7AD1FF2000F042FBC0B28DF819
:103F70000000FF2000F03CFBC0B28DF80100FF20E4
:103F800000F036FBC0B28DF80200FF2000F030FBDD
:103F9000C0B28DF803003A48006840F0100038497C
:103FA0000860FF2000F024FB9DF80200012863D187
:103FB0009DF80300AA285FD1002415E000221146D5
:103FC000372000F097FAC5B2012D01D028465EE7F0
:103FD00000224FF08041292000F08CFAC5B20DB9C3
:103FE000002405E0601C84B240F6FF708442E5DBEB
:103FF00000BF40F6FF70844201D1032047E7002252
:1040000011463A2000F0BAFAC5B20DB128463EE793
:10401000FF2000F0EDFAC0B28DF80000FF2000F0A4
:10402000E7FAC0B28DF80100FF2000F0E1FAC0B25B
:104030008DF80200FF2000F0DBFAC0B28DF803001B
:104040000F48006840F010000D490860FF2000F0A4
:10405000CFFA9DF8000000F0400000E00CE020B135
:104060000420064981F84E0003E00220034981F84C
:104070004E00012000F06EF8002008E768110020D3
:10408000100801402DE9F04105460E4617461E482E
:1040900090F84E00042800D06D020022294612201C
:1040A00000F028FA00F0FF08B8F1000F02D001205C
:1040B000BDE8F081002415E006EB442000224FF417
:1040C000007100F0CBF960B1002211460C2000F025
:1040D00011FA0E48006840F010000C4908600220F8
:1040E000E6E7641CBC42E7D3002211460C2000F036
:1040F00001FA0648006840F0100004490860FF20FB
:1041000000F076FA0020D3E7681100201008014083
:1041100070B504460E460E4890F84E00042800D0B4
:10412000640200222146112000F0E4F9C5B20DB16D
:10413000012070BD01225102304600F08FF9C5B256
:10414000002211460C2000F0D5F92846F1E70000C6
:104150006811002010B586B004460020ADF80400B8
:104160004FF48270ADF806000020ADF80800022080
:10417000ADF80A000120ADF80C004002ADF80E00C9
:104180000020ADF812000720ADF814001CB938204B
:10419000ADF8100002E01020ADF8100001A90248AF
:1041A00000F047FE06B010BD0030014008B5012107
:1041B000080300F089FA01210D2000F085FAE020C3
:1041C000ADF8000003208DF8020018208DF80300E0
:1041D00069461648FFF7F0F81020ADF800000320FC
:1041E0008DF8020010208DF8030069460F48FFF794
:1041F000E3F80120ADF8000003208DF8020048200C
:104200008DF8030069460A48FFF7D6F807481030D2
:10421000006840F010000549103108600020FFF7E9
:1042200099FF0121034800F0F8FD08BD0008014096
:10423000000C0140003001402DE9F04705460E46D4
:1042400017464B4890F84E00042800D06D024848AD
:1042500090F84E0020B100223946172000F04AF9AC
:1042600000222946192000F045F9C4B214B10120FA
:10427000BDE8F0873F48006840F010003D49086005
:10428000FF2000F0B5F94FF0000842E0FC2000F0FC
:10429000AFF94FF0000907E016F8010B00F0A8F99C
:1042A00009F101001FFA80F9B9F5007FF4DBFF2066
:1042B00000F09EF9FF2000F09BF9FF2000F098F934
:1042C000C4B204F01F00052809D02A48001F006866
:1042D00040F010002749091F08600220C8E74FF08E
:1042E000000A0FE050460AF1010AB0F5802F09D10B
:1042F0002048001F006840F010001E49091F086098
:104300000320B5E7FF2000F073F9FF28EAD108F198
:104310000108B845BAD3FD2000F06AF9C4B20CB95F
:104320000420A5E74FF0000A0FE050460AF1010A09
:10433000B0F5802F09D10F48001F006840F0100031
:104340000C49091F0860052092E7FF2000F050F992
:10435000FF28EAD10748001F006840F01000054917
:10436000091F0860FF2000F043F9002080E70000EB
:1043700068110020140801402DE9F04104460D4663
:10438000344890F84E00042800D0640200222146F0
:10439000182000F0AFF8C6B216B10120BDE8F081D8
:1043A0002D48006840F010002B490860FF2000F005
:1043B0001FF9FF2000F01CF9FF2000F019F9FE2082
:1043C00000F016F9002705E015F8010B00F010F9D0
:1043D000781C87B2B7F5007FF6DBFF2000F008F904
:1043E000FF2000F005F9FF2000F002F9C6B206F048
:1043F0001F00052809D01848001F006840F0100071
:104400001549091F08600220C8E74FF000080FE0B7
:10441000404608F10108B0F5802F09D10E48001F71
:10442000006840F010000C49091F08600320B5E740
:10443000FF2000F0DDF80028EAD00748001F0068E0
:1044400040F010000449091F0860FF2000F0D0F878
:104450000020A3E768110020140801402DE9F04175
:1044600005460E4617462248006840F010002049D5
:10447000086000240BE0FF2000F0BAF800F0FF080D
:10448000B8F1FE0F01D1002404E0601C84B2B4F541
:10449000FA6FF0DB00BFB4F5FA6F0AD11448001FC1
:1044A000006840F010001249091F08600120BDE8B3
:1044B000F081002405E0FF2000F09AF82855601CE8
:1044C00084B2B442F7DBFF2000F092F8FF2000F046
:1044D0008FF857B10648001F006840F010000449EB
:1044E000091F0860FF2000F083F80020DFE70000CC
:1044F000140801402DE9F04106460C461746FF20FE
:1045000000F076F810211C48FFF733F846F0400021
:1045100000F06EF8200E00F06BF8C4F3074000F0D6
:1045200067F8C4F3072000F063F8E0B200F060F829
:10453000384600F05DF84FF000080AE0FF2000F078
:1045400057F8C5B2FF2D00D006E008F1010000F0D9
:10455000FF08B8F1C80FF1DB00BF07481030006852
:1045600040F01000044910310860FF2000F040F8CE
:104570002846BDE8F0810000000801402DE9F04127
:1045800006460C461746FF2000F032F81748006830
:1045900040F010001549086046F0400000F028F88F
:1045A000200E00F025F8C4F3074000F021F8C4F312
:1045B000072000F01DF8E0B200F01AF8384600F0CD
:1045C00017F84FF000080AE0FF2000F011F8C5B21C
:1045D000FF2D00D006E008F1010000F0FF08B8F15F
:1045E000C80FF1DB00BF2846BDE8F0811408014088
:1045F000014600BF0848008900F002000028F9D0F9
:104600000548818100BF0448008900F001000028AE
:10461000F9D00148808970470030014000BFFEE7B3
:104620007047000070B5002100230F22C47804B346
:10463000154C246804F4E064C4F5E064210AC1F177
:104640000403CA40447804FA03F1847814402143F7
:1046500009010E4C0678A155047804F01F050124C9
:10466000AC4005786D11AD0005F1E025C5F80041BD
:1046700009E0047804F01F050124AC40044D0678DD
:10468000761145F8264070BD0CED00E000E400E036
:1046900080E100E0024A0A400243024B1A60704780
:1046A00080FFFF1F08ED00E029B1064AD2690243EE
:1046B000044BDA6104E0034AD2698243014BDA61B8
:1046C000704700000010024029B1064A9269024377
:1046D000044B9A6104E0034A92698243014B9A6158
:1046E000704700000010024030B500210022002475
:1046F00000232D4D6D6805F00C0121B1042905D072
:10470000082923D105E0294D056022E0274D0560E9
:104710001FE0254D6D6805F47012234D6D6805F49A
:104720008034022505EB92421CB9214D55430560AA
:104730000BE01D4D6D6805F400351DB11C4D554352
:10474000056002E0194D5543056002E0174D056014
:1047500000BF00BF144D6D6805F0F0010909154D4B
:104760006B5C0568DD4045600F4D6D6805F4E061E8
:10477000090A104D6B5C4568DD4085600A4D6D6827
:1047800005F46051C90A0B4D6B5C4568DD40C5609E
:10479000054D6D6805F44041890B074D6B5CC5689C
:1047A000B5FBF3F5056130BD0010024000127A0040
:1047B00000093D00F80000200801002070B5044603
:1047C0000D462A462146024800F091FF70BD0000C8
:1047D0000038014001460878242801D1012000E07A
:1047E00000204A78492A01D1012200E0002210402D
:1047F0008A78432A01D1012200E000221040CA78C1
:10480000582A01D1012200E0002210400A79582ADA
:1048100001D1012200E00022104008B101207047C0
:104820000878242801D1012000E000204A785A2A83
:1048300001D1012200E0002210408A784A2A01D1E9
:10484000012200E000221040CA78582A01D101223A
:1048500000E0002210400A79582A01D1012200E02C
:104860000022104008B10220D9E70878242801D19D
:10487000012000E000204A78532A01D1012200E003
:10488000002210408A784A2A01D1012200E0002249
:104890001040CA78582A01D1012200E000221040BD
:1048A0000A79582A01D1012200E00022104008B103
:1048B0000320B4E70878242801D1012000E000207B
:1048C0004A78472A01D1012200E0002210408A786C
:1048D0004E2A01D1012200E000221040CA78502A5D
:1048E00001D1012200E0002210400A79582A01D1AA
:1048F000012200E00022104008B104208FE7087870
:10490000242801D1012000E000204A78462A01D164
:10491000012200E0002210408A784B2A01D10122B6
:1049200000E000221040CA78582A01D1012200E09C
:10493000002210400A79582A01D1012200E0002209
:10494000104008B105206AE70878242801D1012029
:1049500000E000204A78542A01D1012200E0002220
:1049600010408A78582A01D1012200E0002210402C
:10497000CA78582A01D1012200E0002210400A79A9
:10498000582A01D1012200E00022104008B107207E
:1049900045E7002043E70146C87A54280ED1087B3A
:1049A00058280BD1487B532808D1887B512805D142
:1049B000887A08B9012070470620FCE70520FAE74D
:1049C0002DE9F04788B004464448D4F80B10016044
:1049D0000146087804F025FA05460E463F49487816
:1049E00004F01FFA074600223D4B04F0ABF8CDE976
:1049F00000013A49C978394A927802EBC20303EBC5
:104A0000021201EB820004F0F5F907460022354B53
:104A100004F098F88146DDE9002303F0EBFF2A4615
:104A20003346CDE9020103F0E5FFCDE904012B4A4D
:104A3000DDE90401C2E90401104621694160014633
:104A4000087904F0EEF981468A462449487904F051
:104A5000E8F907460022224B04F074F805460E469A
:104A60001E49CA79897901EBC10303EB011102EBFD
:104A7000810004F0BFF9074600221A4B04F062F8E7
:104A80002A463346CDE9000103F0B4FF4A465346B7
:104A9000CDE9020103F0AEFFCDE906010F4ADDE9E1
:104AA0000601C2E902011046A18A0183E18A41831D
:104AB000218B8183A07E11468877E07EC877207F96
:104AC00081F820000846B4F81D10A0F82110E07FFE
:104AD000114681F8230008B0BDE8F087401100209E
:104AE00000004E4000F91541104930F8072F0A80A8
:104AF00082788A70C1780D4AD170114682888A8086
:104B000082798A71C179094AD171114602890A8173
:104B1000817A064A9172C17AD172114682898A815C
:104B2000817BC01F014A9173704700002011002053
:104B3000C17A827A41EA0221074A1180017B917091
:104B4000417BD170817B1171C17B5171017C91716D
:104B5000417CD171704700008A0000202DE9F041AE
:104B600004460025A846A07A27490870E07A4870D4
:104B7000207B8870607BC870A07B0871E07B4871E7
:104B8000207C8871607CC871A07C0872E07C4872CF
:104B9000207D887200BF13E005F10E00205C042820
:104BA00003D108F1010000F0FF0805F10E00205CC0
:104BB000B04203DD05F10E00265C2F46681CC5B22D
:104BC000062DE9DB6EB1B8F1010F0ADD0F488772DF
:104BD0000E21FEF7D2FC0D49887301200C490870A4
:104BE0000BE00020094988720E210848FEF7C5FC39
:104BF000064988730020064908700F210348FFF713
:104C0000DDFDBDE8F08100002F1100207B000020B9
:104C10000F00002008B501210420FFF755FD0220F8
:104C2000ADF8000010208DF8030003208DF802007D
:104C300069460448FEF7C0FB02210248FEF79BFCD0
:104C400008BD00000008014008B5002000906A4639
:104C5000E7214020FEF7A0FC9DF8000008BD10B53C
:104C60000022FE214020FEF7CCFC10BD2DE9F84FBC
:104C700082464FF0000B2AF0030A504604F060FC15
:104C8000009004F0C9FA8046074A084B04F0DCF8AB
:104C900006460022064B04F0D5F9044603F078FEE0
:104CA00083465846BDE8F88F7644CF7701405F3F92
:104CB000000018402DE9F84F82464FF0000B2AF013
:104CC000030A504604F03CFC009004F0A5FA80462C
:104CD000074A084B04F0B8F80646074A074B03F0AA
:104CE00089FE044603F054FE83465846BDE8F88F1B
:104CF000D7A3703D0AF7653FCDCCCCCCCC6C47C078
:104D000070B503460C46154600210026002200BF60
:104D100013E0985C414008260BE001F0800020B1D0
:104D2000312080EA4100C1B201E04806010E701E48
:104D3000C6B2002EF1DC501CC2B2A242E9DBA9428D
:104D400001D0012070BD0020FCE72DE9F8430646A4
:104D50000C4600270025A846A9468025FEF752FDEF
:104D60002846FEF715FD4CF25030FEF78FFD10B1CE
:104D70000020BDE8F8833046FEF70AFD4CF25030C3
:104D8000FEF784FD08B10020F3E7FEF73BFD691C48
:104D9000C8B2FEF7FDFC05E0FEF734FD691CC8B2A1
:104DA000FEF7F6FC4CF25030FEF770FD0028F3D110
:104DB000462001F0D3F8FEF7BBFC8DF80000FEF7AB
:104DC0004FFCFEF7B5FC8DF80100FEF749FCFEF73D
:104DD000AFFC0746FEF78AFCFEF736FD3A46022195
:104DE0006846FFF78DFF9DF801009DF8001000EB6D
:104DF00001201FFA80F8E32E04D14046FFF75AFF46
:104E0000814603E04046FFF731FF81461CB148462A
:104E100004F05EFB20804846ABE721B1028842F0F7
:104E20004002028004E002884FF6BF731A400280FD
:104E3000704710B50022028802F441520B884C885A
:104E400023438C882343CC8823430C8923434C89F8
:104E500023438C892343CC8923431A430280838BC9
:104E60004FF2FF74234083830B8A038210BD10B579
:104E700000F002F810BD00000CB500200190009079
:104E80003348006840F480303149086000BF304842
:104E9000006800F4003000900198401C01900098D8
:104EA00018B90198B0F5A06FF1D12948006800F455
:104EB000003010B10120009001E000200090009827
:104EC000012843D12348006840F0100021490860C0
:104ED0000846006820F0030008600846006840F0BB
:104EE000020008601A48406819494860084640684E
:104EF00048600846406840F4806048600846406862
:104F000020F47C1048600846406840F4E81048608F
:104F10000846006840F08070086000BF0C480068D8
:104F200000F000700028F9D00948406820F0030024
:104F3000074948600846406840F00200486000BFEA
:104F40000348406800F00C000828F9D10CBD0000AF
:104F5000001002400020024008B50020009005200B
:104F6000FEF74AFCFFF770FE012000F0F7FF00217A
:104F7000E320FFF7EAFE1B49086008681A4904F0BD
:104F800072FB02D8194817490860462000F0E6FF76
:104F90000021E520FFF7D9FE124948604868124910
:104FA00004F061FB02D811480E494860192000F056
:104FB000D5FFFFF749FE192000F0D0FF6A46E62131
:104FC0004020FEF71EFB642000F0C8FFFFF73CFE08
:104FD000642000F0C3FFFFF742FE642000F0BEFF34
:104FE00008BD0000380000200000C8420000F04169
:104FF000042808D14FF0E021096941F004014FF085
:10500000E022116107E04FF0E021096921F004017D
:105010004FF0E0221161704710B51348006840F06E
:1050200001001149086008464068104908400E49CF
:105030004860084600680E4908400B490860084669
:10504000006820F4802008600846406820F4FE00D4
:1050500048604FF41F008860FFF709FF4FF00060C1
:105060000449086010BD0000001002400000FFF875
:10507000FFFFF6FE08ED00E010B524201C49087083
:1050800054204870582088705320C87051200871EF
:105090000020487161208871084616490A88A0F8E6
:1050A00007208978417246201149887208461249C2
:1050B0000A88A0F80B208978417302200C49887374
:1050C0007420C873002008740C48007881F85E00D2
:1050D00060210748FEF751FA054981F8600002F0A7
:1050E0006DFE61210248FFF769FB02F079FE10BDF9
:1050F00048100020201100200C000020100000208B
:1051000010B5002440F22551244800F008FA002888
:105110003ED0224800F0BEFAC4B2214800780028F0
:105120000BDD1F4800780B2807DA1D48017800784E
:10513000401C1B4A10701B484454552C01D10120BF
:1051400000E000201649097809B9012100E000219A
:10515000084040B1124801780078401C104A107095
:10516000104844540FE00E4800780B280BDB002059
:105170000B4908700B48FEF7FFFB0A48002101604D
:1051800041600181817240F22551044800F09FF98D
:105190004FF45871014800F09AF910BD004C0040DE
:1051A00013000020080F002038B500BF40F2255141
:1051B0002C4800F0B4F960B12A4800F06BFAC1B293
:1051C000294802780078401C274B187027488154E2
:1051D00031E040F22441234800F0A1F958B32148BE
:1051E0000088C4B21F48001D0088C4B2204800686F
:1051F00078B169461E48006803F0EEF8009868B17F
:105200004FF080501B490860BFF34F8FBFF36F8F83
:1052100004E069461848006803F0DEF81248027896
:1052200012491648FCF723FA00200F490870C821DC
:105230000E48FCF769FA08210A4800F070F90128C5
:105240000FD1084800F026FAC1B20748027800786A
:10525000401C054B1870054881540821014800F096
:105260002DF938BD0038014012000020400E00200A
:105270002400002004ED00E020000020780D002034
:1052800010B5002440F22551124800F048F9F8B159
:10529000002240F225510F4800F06BF940F22551F1
:1052A0000C4800F014F90B4800F0F4F904462146CC
:1052B000094800F0F4F900BF4021074800F022F946
:1052C0000028F9D0012240F22551024800F051F99E
:1052D00010BD0000004400400038014010B500BF80
:1052E00040F22551704800F01AF960B16E4800F0A4
:1052F000D1F9C1B26D4802780078401C6B4B187030
:105300006B488154CFE040F22441674800F007F930
:105310000028F7D064480088C4B26348001D0088A4
:10532000C4B262480078092811DA6148007823285D
:105330000CD15F484078232808D15D488078232825
:1053400004D15B48C0785B490870A3E0A2E05848EC
:105350000078412824D156484078642820D1544808
:10536000807876281CD15248C078652818D15048DA
:105370000079722814D14E484079742810D14C48D5
:10538000807969280CD14A48C079732808D14848E7
:10539000007A692804D110214748FEF7EAF879E03D
:1053A00043480078432824D1414840786F2820D1D1
:1053B0003F4880786E281CD13D48C0786E2818D1AF
:1053C0003B480079652814D139484079632810D1C9
:1053D0003748807974280CD13548C079652808D1C0
:1053E0003348007A642804D110213348FEF7C3F80B
:1053F00050E02F484078412824D12D4880786428F7
:1054000020D12B48C07876281CD1294800796528FE
:1054100018D127484079722814D1254880797428FA
:1054200010D12348C07969280CD12148007A73280B
:1054300008D11F48407A692804D110211E48FEF780
:1054400098F827E01A484078432823D118488078F4
:105450006F281FD11648C0786E281BD114480079D8
:105460006E2817D112484079652813D110488079E9
:1054700063280FD10E48C07974280BD10C48007AEC
:10548000652807D10A48407A642803D110210A48C8
:10549000FEF771F8054802780549034800F027F93E
:1054A00000200249087010BD004800401100002093
:1054B000B00C002010000020001C014001F400721C
:1054C000B2F5007F00D100BFCA430280704710B51B
:1054D0000022002340F66A14A14200D100BF0A1244
:1054E00001249440A3B2DC43048010BD21B1828921
:1054F00042F40052828104E082894DF6FF731A4023
:105500008281704702460020B1F5007F00D100BFC4
:1055100013880B400BB1012000E00020704770B5EC
:105520000246002400230025002040F66A16B142FE
:1055300000D100BFC1F3421501F01F03012606FA96
:1055400003F3012D02D19689334006E0022D02D1EA
:10555000168A334001E0968A33400C12012606FA7F
:1055600004F41688344013B10CB1012000E000208F
:1055700070BDF0B50346002400260025002040F64B
:105580006A17B94200D100BF1846C1F3421401F0B6
:105590001F06012707FA06F5012C01D10C3004E0A3
:1055A000022C01D1103000E014301AB107682F43EB
:1055B000076002E00768AF430760F0BD2DE9F047E0
:1055C00086B005460E460024A24600BFA14600272D
:1055D000B08900B100BF2F462C8A4CF6FF70044002
:1055E000F08804432C82AC894EF6F3100440B08856
:1055F00031890843718908430443AC81AC8A4FF672
:10560000FF400440B0890443AC8201A8FFF76CF866
:105610001F48874202D1DDF810A001E0DDF80CA0A0
:10562000A88900F4004040B10AEBCA0000EB0A1060
:1056300031684900B0FBF1F807E00AEBCA0000EB63
:105640000A1031688900B0FBF1F86420B8FBF0F073
:1056500004012009642101FB1089A88900F400409D
:1056600040B1322000EBC900B0FBF1F000F00700C0
:10567000044308E0322000EB09106421B0FBF1F094
:1056800000F00F0004432C8106B0BDE8F087000055
:105690000038014001468888C0F308007047C1F314
:1056A00008028280704700BFFEE70FB430B5CBB070
:1056B000054601AC50A8009001A8009A4F99FBF74D
:1056C00067FE002000900BE014F8011B2846FFF74E
:1056D000E6FF00BF40212846FFF714FF0028F9D05D
:1056E00020780028F0D14BB030BC5DF814FB2DE9D8
:1056F000F04107460C46154600260DE014F8011B44
:105700003846FFF7CCFF00BF40213846FFF7FAFECE
:105710000028F9D0701C86B2AE42EFDBBDE8F08104
:1057200010B5FDF775FC0548FDF7F2FB0449034889
:10573000FDF738FCFDF72CFC10BD0000000004084C
:1057400000100008490050EAC12018BF04204A0D8B
:1057500018BF40F0010040F2FF72B2EB515F08BF8A
:1057600040F00200012808BF0520704730380A28A1
:1057700001D20120704700207047000070B5044638
:105780000D46607801232A4604F1300100F0A8FE9E
:1057900008B1032070BD94F82E1294F82F0241EA4C
:1057A00000204AF65521884201D00220F2E794F801
:1057B0006900010694F8680041EA004194F8670026
:1057C00041EA002094F86610084320F07F400E491B
:1057D000884201D10020DDE794F88500010694F8A5
:1057E000840041EA004194F8830041EA002094F8E3
:1057F0008210084320F07F400349884201D10020F5
:10580000C8E70120C6E7000046415400024600E018
:10581000521C107810B110788842F9D11078704776
:105820002DE9F74F88B0089800680190019800783A
:1058300030380790079809280AD8019840783A2804
:1058400006D10198801C019008990198086001E038
:1058500000200790079818B10B200BB0BDE8F08F1F
:10586000D049079851F82040099804600CB90C20E1
:10587000F3E7207878B1607800F05FFE804608F0AA
:10588000010040B90A9820B108F0040008B10A20CC
:10589000E3E70020E1E7002020700798607060785F
:1058A00000F0AFFD804608F0010008B10320D4E706
:1058B0000A9820B108F0040008B10A20CDE74FF0A3
:1058C000000B59462046FFF759FF054600BF012D42
:1058D00021D14FF0000ABAF1000F03D0AAF1010064
:1058E00000F0FF0A4FF4DF7000EB0A1104F1300002
:1058F0000F18387978B1F87A0106B87A41EA004190
:10590000787A41EA0020397A40EA010B594620466C
:10591000FFF734FF0546032D01D101209DE70DB1AE
:105920000D209AE73B20015D94F83C0041EA0020FD
:10593000B0F5007F01D00D208FE74620015D94F87F
:10594000470041EA0029B9F1000F0ED194F8570041
:10595000010694F8560041EA004194F8550041EAE6
:10596000002094F8541040EA0109C4F81C9040202B
:10597000065DE670012E03D0022E01D00D206CE7EB
:1059800009FB06F93D20005D0646A07016B1701EA9
:10599000304008B10D2060E74120015D94F84200DD
:1059A00041EA00202081207A00F00F0008B10D208C
:1059B00053E74320015D94F8440041EA002006903B
:1059C000069870B994F85300010694F8520041EA21
:1059D000004194F8510041EA002094F85010084327
:1059E00006903E20015D94F83F0041EA00200290BD
:1059F000029808B90D2030E702984844218900EB4D
:105A000011100590DDE90501814201D20D2024E746
:105A1000DDE90510401AA178B0FBF1F0049004987C
:105A200008B90D2019E7012540F6F671049888425F
:105A300000D302254FF6F6710498884200D303255F
:105A40000498801CA06105985844A06202985844AC
:105A50002062032D16D1208908B10D20FDE694F8AF
:105A60005F00010694F85E0041EA004194F85D0091
:105A700041EA002094F85C1008436062A06980004D
:105A8000039014E0208908B90D20E6E6206A484416
:105A90006062022D02D1A069400007E0207E00F084
:105AA0000100A16901EB410100EB51000390E169A4
:105AB000039800F2FF10B1EB502F01D20D20CCE67D
:105AC0004FF0FF3020610020E060032D5CD1607159
:105AD00094F8601094F8610041EA00205844606135
:105AE0006078012304F13001626900F0F9FCE8BB41
:105AF00094F82E1294F82F0241EA00204AF655211C
:105B0000884241D13320005D01063220005D41EA28
:105B100000413120005D41EA002094F83010084334
:105B20002149884230D194F81702010694F81602F0
:105B300041EA004194F8150241EA002094F8141259
:105B400008431A4988421FD194F81F02010694F8AD
:105B50001E0241EA004194F81D0241EA002094F837
:105B60001C120843E06094F81B0200E00CE0010600
:105B700094F81A0241EA004194F8190241EA00201F
:105B800094F8181208432061257009480088401CC9
:105B900080B207490880E0800020E062207100BFE9
:105BA0005BE6000064010020525261417272416163
:105BB000680100200246891E9069801E884201D833
:105BC000002070479378906A01FB0300F9E700001A
:105BD0002DE9F04705460C46207820F04000401E95
:105BE00000EB800101EBC00600274FF0010800BF69
:105BF0001A48C05D205C1949C95D2144497840EAD2
:105C00000129B8F1000F10D0484601F04FF8804646
:105C1000FF2E07D23146761C35F8110001F046F808
:105C2000404508D00020BDE8F0874FF6FF70814561
:105C300001D00020F7E7781C07460D28D8D320783C
:105C400000F0400038B1B8F1000F04D035F816006C
:105C500008B10020E7E70120E5E70000BA97000857
:105C60002DE9F04704468946B9F1000F06D1E768EF
:105C700017B1A069B84211D801270FE04946204664
:105C800001F013F90646022E02D20120BDE8F0878A
:105C9000A069B04201D93046F8E74F463D4600BF03
:105CA0006D1CA069A84204D80225BD4201D900207C
:105CB000ECE72946204601F0F8F8064606B909E067
:105CC000701C08B1012E01D13046DFE7BD42E7D19B
:105CD0000020DBE700BF6FF070422946204601F04C
:105CE000C0FB8046B8F1000F08D1B9F1000F05D014
:105CF0002A464946204601F0B4FB8046B8F1000F21
:105D000009D1E5602069401C68B12069401E20610E
:105D10000120607107E0B8F1010F02D14FF0FF30B0
:105D200000E0012005462846B0E700002DE9F34FCA
:105D300083B082460498D0F800B001E00BF1010B6B
:105D40009BF800002F28F9D09BF800005C28F5D0C4
:105D5000DAF81C9000252E4600BF3046761C1BF852
:105D60000040202C03DB2F2C01D05C2C00D11CE048
:105D7000FF2D03D3062005B0BDE8F08FE4B201216A
:105D8000204600F06DFF04460CB90620F3E7802C96
:105D900006DA21466BA0FFF739FD08B10620EAE7D5
:105DA00028466D1C29F81040D7E700BF0BEB060111
:105DB00004980160202C01DA042000E0002007464E
:105DC00008E0681E39F81040202C02D02E2C00D09C
:105DD00002E06D1E002DF4D100BF0DB90620CAE708
:105DE000002029F815000B222021DAF8180001F014
:105DF00043F9002600E0761C39F816002028FAD076
:105E000039F816002E28F6D00EB147F0030700E04F
:105E10006D1E25B1681E39F810002E28F8D14FF0FC
:105E20000008CDF808800820019000BF3046761C9D
:105E300039F8104004B955E0202C03D02E2C04D1A1
:105E4000AE4202D047F00307F0E7DDE901108842D7
:105E500001D2AE4216D101980B2802D147F00307B8
:105E600040E0AE4201D047F00307AE4200D939E02E
:105E70002E46082002900B2001904FEA88604FEADE
:105E80001068D3E7802C0BDB0021204600F0E8FEF1
:105E900004461CB1A4F180002D490C5C47F00207B8
:105EA00000BF24B121462BA0FFF7B0FC18B15F243E
:105EB00047F003070FE0412C04DB5A2C02DC48F0CA
:105EC000020808E0612C06DB7A2C04DC48F00108AB
:105ED000A4F1200084B2DAF818300298411C029133
:105EE0001C54A3E700BFDAF818000078E52803D1B6
:105EF0000520DAF8181008700198082803D14FEA35
:105F000088604FEA106808F00C000C2803D008F0F5
:105F10000300032801D147F0020707F0020058B937
:105F200008F00300012801D147F0100708F00C0029
:105F3000042801D147F00807DAF81800C7720020DA
:105F400019E70000222A3A3C3E3F7C7F0000000017
:105F5000C79700082B2C3B3D5B5D000070B50446E5
:105F600002F0D8FB012810D00B480068844206D309
:105F700009480068B4FBF0F5284602F0ADF9064880
:105F80000068B4FBF0F100FB11444FF47A7104FB9C
:105F900001F000F003F870BD4400002070B5034626
:105FA00000224FF0E02675690D4E366803FB06F4BB
:105FB0004FF0E026B16910E04FF0E026B06988426A
:105FC0000BD0884202D20E1A324402E02E1A0E443E
:105FD00032440146A24200D300E0EDE700BF70BDAD
:105FE000400000202DE9F04704460021204600F043
:105FF000BAF9074617B13846BDE8F0874FF0FF09F8
:10600000CA4600BF2169206801F040F8074607B181
:1060100054E065692E780EB904274FE0E87A00F065
:106020003F08E52E05D008F0080028B1B8F10F0FA1
:1060300002D04FF0FF093AE0B8F10F0F1CD1E06930
:10604000A0B306F0400030B195F80DA026F0400650
:10605000B146E08820844E450AD1687B504507D17F
:106060002946E069FFF7B4FD10B1A9F1010000E095
:10607000FF2000F0FF091AE0B9F1000F05D1284612
:1060800001F02CFB504500D118E04FF0FF094FF60E
:10609000FF702084A069C07A00F0010030B90B22A3
:1060A0002846A16900F0C8FF00B907E0FFE700211A
:1060B000204600F006F80746002FA3D000BF384660
:1060C0009AE72DE9F0410446884600BFE088401C6D
:1060D00086B20EB1206910B90420BDE8F08106F047
:1060E0000F0000286FD12069401C2061E06828B9AA
:1060F00020680089B04266DC0420EEE720688078E2
:10610000401E00EA161000285DD1E168206800F00A
:10611000CCFE0546012D01D80220DEE7681C08B937
:106120000120DAE720688069A84246D8B8F1000F5C
:1061300001D10420D1E7E1682068FFF791FD054611
:106140000DB90720C9E7012D01D10220C5E7681C60
:1061500008B90120C1E70021206800F097FF08B1CD
:106160000120BAE7216801F130004FF400720021EC
:1061700000F082FF29462068FFF71CFD2168C862F5
:10618000002710E00120216808710021206800F03C
:106190007DFF08B10120A0E72068C06A401C21688B
:1061A000C862781CC7B220688078B842EADC2068F0
:1061B000C06AC01B2168C86200BFE560294620682C
:1061C000FFF7F8FC2061E6802068303006F00F0110
:1061D00000EB4110606100207FE72DE9F04F85B0B2
:1061E0000446D4F81880D4F81CB00C22414601A80B
:1061F00000F035FF00BF9DF80F0000F0010030B344
:10620000002088F80B00E06101270DE03B465A466C
:1062100001A9404600F0F5FD2046FFF7E3FE0546E4
:1062200005B103E0781C87B2642FEFDB00BF642F59
:1062300003D1072005B0BDE8F08F042D01D028461A
:10624000F8E79DF80F0088F80B00C4F81CB09DF823
:106250000F0000F0020070B1002601E0701C86B251
:106260003BF816000028F9D106F119000D2190FB2A
:10627000F1F086B200E001260021204600F073F81C
:1062800005460DB12846D5E700200746049000BF1B
:106290002169206800F0FAFE054605B119E0606941
:1062A00090F80090B9F1E50F02D0B9F1000F08D1D4
:1062B0000FB9E0880490781C80B20746B04201D143
:1062C00007E0002701212046FFF7FBFE0546002DD1
:1062D000DED000BF4DBB012E27DD2046049900F023
:1062E00042F805460DBBA06901F0F8F90090701E58
:1062F00086B200BF2169206800F0C8FE054605B1DE
:1063000012E0F2B26169E069009B00F0EBFC012051
:106310002168087100212046FFF7D3FE05461DB90C
:10632000701E80B2061EE5D100BFD5B92169206874
:1063300000F0ACFE0546A5B9D4F814A02022002137
:10634000504600F099FE0B225046A16900F087FEEE
:10635000A069C07A00F018008AF80C0001202168BA
:106360000871284666E72DE9F04104460E46E680AE
:10637000A568012D03D020688069A84202D80220B8
:10638000BDE8F0812DB920680078032801D120688C
:10639000456A65B9E56020680089B04201DC0220E9
:1063A000EEE72068406A00EB1610206120E02068CC
:1063B0008078070112E02946206800F076FD054646
:1063C000681C08B90120DBE7022D03D3206880692F
:1063D000A84201D80220D3E7F01B86B2BE42EADA17
:1063E000E56029462068FFF7E5FB00EB1610206109
:1063F0002068303006F00F0100EB41106061002092
:10640000BEE770B5054635B1012D0CD0022D0CD07C
:10641000032D0ED10BE0FDF70FFD04460CB9002053
:1064200070BDE0B2FCE70020FAE70020F8E70020AA
:10643000F6E70120F4E7000070B505460C46164665
:1064400045BB2648FDF792FB0F2C22D2DFE804F073
:10645000080A211321191A1B21211C1D1E1F2000AF
:10646000002070BD1D48406C1C49896CB0FBF1F0E8
:1064700030600020F5E71948B0F84800308000206F
:10648000EFE706E005E004E003E002E001E000E001
:1064900000BF20E0012D1CD10F2C19D2DFE804F041
:1064A000080A0C0E181011121818131415161700DC
:1064B0000020D6E70020D4E70020D2E70020D0E774
:1064C00006E005E004E003E002E001E000E000BFD8
:1064D00001E00420C5E70420C3E7000068110020A4
:1064E0002DE9F0410646884617461C4614B904209B
:1064F000BDE8F08116B1012E1DD116E0012C09D1A5
:1065000041463846FDF704FE05460DB90020EFE789
:106510000120EDE7224641463846FDF7B3FD05462A
:106520000DB90020E4E70120E2E7012C01D10020B1
:10653000DEE70020DCE70120DAE7014621B101298E
:1065400004D0022906D103E0002070470020FCE7B8
:106550000020FAE70120F8E72DE9F04106468846D9
:1065600017461C4614B90420BDE8F08116B1012E6F
:106570001DD116E0012C09D141463846FDF7FCFE3D
:1065800005460DB90020EFE70120EDE72246414620
:106590003846FDF751FE05460DB90020E4E701201D
:1065A000E2E7012C01D10020DEE70020DCE701203A
:1065B000DAE700002DE9F04707463E461748006835
:1065C000864201D1002426E001F0F8FB75691448E9
:1065D000D0F800901348D0F8008001F001FC4D4540
:1065E00001D0454501D1022415E00F4885420BD169
:1065F000B06A38B996F85800012801D102240AE09F
:10660000032408E0022406E00848854200D00DB9C2
:10661000042400E001242046BDE8F0870C0100209E
:1066200010010020140100207412002060120020CC
:1066300070B50446204600F0AFF905460DB90020BC
:106640002060284670BD2DE9F04704460E46A1881B
:10665000206801F083FF8246BAF1000F02D0504655
:10666000BDE8F087A07900F0800008B10220F7E7CC
:10667000E068B04204D2A07900F0020000B9E668F8
:10668000D4F808904FF00008C4F80880002E77D0A6
:10669000206880784702B9F1000F11D0701EB0FB5E
:1066A000F7F1A9F10100B0FBF7F0814208D3A9F19D
:1066B0000100791E8843A060A068361A656918E059
:1066C0002569ADB900212068FFF7CAFA0546012DFA
:1066D00005D1A07940F08000A0710220C0E7681CBD
:1066E00028B9A07940F08000A0710120B8E72561A9
:1066F0006561002D44D029E0A07900F0020038B196
:1067000029462068FFF7ACFA054635B93E461FE03A
:106710002946206800F0C9FB0546681C28B9A07905
:1067200040F08000A07101209AE7012D03D9206874
:106730008069A84205D8A07940F08000A0710220AD
:106740008EE76561A0683844A060F61BBE42D3D8CE
:1067500000BFA0683044A060C6F3080068B12946B5
:106760002068FFF727FA8046B8F1000F06D1A0791C
:1067700040F08000A071022072E701E008EB56288B
:106780002089C0F3080050B3A069404527D0A07904
:1067900000F0400090B121684878012304F1240101
:1067A000A269FFF7D9FE28B1A07940F08000A0715E
:1067B000012055E7A07920F04000A07121684878B9
:1067C0000123424604F12401FFF78AFE28B1A07993
:1067D00040F08000A071012042E7C4F81880D4E99D
:1067E0000201884205D9A068E060A07940F020004D
:1067F000A071504634E700000246012A01DB0B205D
:106800007047074850F822300BB10020187009B1CA
:1068100000200870024840F822100020F0E7000035
:10682000640100202DE9F7438CB005461646002090
:10683000286006F01F0626F0010203A90DA8FEF746
:10684000EFFF0746CDF824D052480A9027B903A895
:106850000D9900F087FA0746089C0FB904B906277E
:1068600006F01C00002858D04FB1042F03D103A814
:10687000FFF7B3FC074646F00806089C09E0E07AFB
:1068800000F0110008B1072703E006F0040000B192
:106890000827002F40D106F0080000283CD000F067
:1068A00077FB804684F80E804FEA1821E1734FEAA7
:1068B000184121744FEA186161740020E07220775A
:1068C00000216177A177E177A17EE07E41EA002196
:1068D000227D607D42EA002041EA00490020A07646
:1068E0000021E17620756175012003990871B9F1E5
:1068F000000F11D00398D0F82C804946039800F07F
:10690000B9FE074647B9A9F101000399C86041469D
:10691000039800F0BBFB07460EE06FB9E07A00F089
:10692000100008B1042707E006F0020020B1E07A69
:1069300000F0010000B1072747B906F0080008B1D0
:1069400046F020060398C06AE8612C62F7B9AE7180
:10695000A17EE07E41EA0021227D607D42EA0020A6
:1069600041EA00402861E07F0106A07F41EA004142
:10697000607F41EA0020217F0843E8600020A86092
:10698000A861039828600398C088A88038460FB093
:10699000BDE8F083885600202DE9F0410446A18827
:1069A000206801F0DBFD0746002F4FD1A07900F0F1
:1069B000200000284AD0A07900F0400078B121687A
:1069C0004878012304F12401A269FFF7C5FD10B145
:1069D0000120BDE8F081A07920F04000A071E169BC
:1069E000206800F053FB0746002F2FD1256AE87A74
:1069F00040F02000E872207B2877A089010A69779F
:106A0000E068010CA977E068010EE977207CA876A0
:106A1000208A010AE9762069000C28752069010E98
:106A2000697500F0B5FA0646AE75310AE975310CA4
:106A30002976310E6976A07920F02000A07101201E
:106A400021680871206800F059FE07463846C0E703
:106A50002DE9FF4F83B0044615469B4604980190EC
:106A60000020CBF80000A188206801F077FD02909B
:106A7000029818B1029807B0BDE8F08FA07900F035
:106A8000800008B10220F6E7A07900F0020008B902
:106A90000720F0E7E0682844E168884200D200253A
:106AA000CDE02089C0F30800002877D120688078E5
:106AB000401EA16800EA512000F0FF0ABAF1000F61
:106AC0002AD1A06858B9D4F81080B8F1000F0BD1C2
:106AD00000212068FFF7C4F88046206104E0616966
